{
  "transactions": [
    {
      "hash": "0x8ee6d69d39f4ce28e49dc9a467728e6da10e99f5aecb5a67d6b495196af125a4",
      "transactionType": "CALL",
      "contractName": null,
      "contractAddress": "0x434936d47503353f06750db1a444dbdc5f0ad37c",
      "function": "registerCustomInstruction((address,uint256,bytes)[])",
      "arguments": [
        "[(0xEe5b0Ba2793267da967E800Ac926620742620D13, 0, 0x30786537623166616631303030303030303030303030303030303030303030303030306236613336343563323430363035383837613535333231303933323361336531323237336463373030303030303030303030303030303030303030303030303030303030303030303030303030303030303030303030303030303030303030303030303030373230303030303030303030303030303030303030303030303030303030303030303030303030303030303030303030303030303030303030303030303030303030303030303030303030303030303030303030303030303030303030303030303030303030303030303030303030303030316263313664363734656338303030303030303030303030303030303030303030303030303030303030303030303030303030303030303030303030303030303030303030303030363638353165303030303030303030303030303030303030303030303030303030303030303030303030303030303030303030303030303030303030303030303030303030303030303030303030303030303030303030303030303030303030303030303030303030303030303030303030303030303030303030303030303030303030303030313030303030303030303030303030303030303030303030303030303030303030303030303030303030303030303030303030623161326263326563353030303030303030303030303030303030303030303030303030303030303030303030303030303030303030303030303030303030646530623662336137363430303030303030303030303030303030303030303030303030303030303030303030303030303030303030303030303030303030303030303030303030303030303030313030303030303030303030303030303030303030303030303030303030303030303030303030303030303030303030303030303030303030363638353165303030303030303030303030303030303030303030303030303030303030303030303030303030303030303030303030303030303030303030303030303030303030303030303030303030303030303030303030303030303030303030303030303030303030303030303030303030303030303030303030303030303030303030303030303030303030303030303030303030303030303030303030303030303030303030303030303030303030303030303030303030303030303030303031633030303030303030303030303030303030303030303030303030303030303030303030303030303030303030303030303030303030303030303030303030303030)]"
      ],
      "transaction": {
        "from": "0x8062909712f90a8f78e42c75401086de3ee95fbe",
        "to": "0x434936d47503353f06750db1a444dbdc5f0ad37c",
        "gas": "0x1196d1",
        "value": "0x0",
        "input": "0xa8c90e6c000000000000000000000000000000000000000000000000000000000000002000000000000000000000000000000000000000000000000000000000000000010000000000000000000000000000000000000000000000000000000000000020000000000000000000000000ee5b0ba2793267da967e800ac926620742620d130000000000000000000000000000000000000000000000000000000000000000000000000000000000000000000000000000000000000000000000000000006000000000000000000000000000000000000000000000000000000000000003ca3078653762316661663130303030303030303030303030303030303030303030303030623661333634356332343036303538383761353533323130393332336133653132323733646337303030303030303030303030303030303030303030303030303030303030303030303030303030303030303030303030303030303030303030303030303037323030303030303030303030303030303030303030303030303030303030303030303030303030303030303030303030303030303030303030303030303030303030303030303030303030303030303030303030303030303030303030303030303030303030303030303030303030303031626331366436373465633830303030303030303030303030303030303030303030303030303030303030303030303030303030303030303030303030303030303030303030303036363835316530303030303030303030303030303030303030303030303030303030303030303030303030303030303030303030303030303030303030303030303030303030303030303030303030303030303030303030303030303030303030303030303030303030303030303030303030303030303030303030303030303030303030303031303030303030303030303030303030303030303030303030303030303030303030303030303030303030303030303030303062316132626332656335303030303030303030303030303030303030303030303030303030303030303030303030303030303030303030303030303030303064653062366233613736343030303030303030303030303030303030303030303030303030303030303030303030303030303030303030303030303030303030303030303030303030303030303031303030303030303030303030303030303030303030303030303030303030303030303030303030303030303030303030303030303030303036363835316530303030303030303030303030303030303030303030303030303030303030303030303030303030303030303030303030303030303030303030303030303030303030303030303030303030303030303030303030303030303030303030303030303030303030303030303030303030303030303030303030303030303030303030303030303030303030303030303030303030303030303030303030303030303030303030303030303030303030303030303030303030303030303030303163303030303030303030303030303030303030303030303030303030303030303030303030303030303030303030303030303030303030303030303030303030303000000000000000000000000000000000000000000000",
        "nonce": "0x9",
        "chainId": "0x72"
      },
      "additionalContracts": [],
      "isFixedGasLimit": false
    }
  ],
  "receipts": [
    {
      "status": "0x1",
      "cumulativeGasUsed": "0xcbbf6",
      "logs": [
        {
          "address": "0x434936d47503353f06750db1a444dbdc5f0ad37c",
          "topics": [
            "0xe17907b597757f817b28e4bed378e8a2b475bd826154119454db142f420be42a",
            "0x000023b2dde09b8e1856d5cfe0eb016985024665561a6756f845c8a51674eb5b"
          ],
          "data": "0x",
          "blockHash": "0x235e57b993cb899cd8cb9955c10760c77da8fedc03a44415b99d7c230708696a",
          "blockNumber": "0x1ba3920",
          "transactionHash": "0x8ee6d69d39f4ce28e49dc9a467728e6da10e99f5aecb5a67d6b495196af125a4",
          "transactionIndex": "0x0",
          "logIndex": "0x0",
          "removed": false
        },
        {
          "address": "0x1000000000000000000000000000000000000002",
          "topics": [
            "0xe7aa66356adbd5e839ef210626f6d8f6f72109c17fadf4c4f9ca82b315ae79b4"
          ],
          "data": "0x000000000000000000000000c738fdcde9cd2fbd72618d36ed71008b8d001ba4000000000000000000000000000000000000000000000000000000000000421a",
          "blockHash": "0x235e57b993cb899cd8cb9955c10760c77da8fedc03a44415b99d7c230708696a",
          "blockNumber": "0x1ba3920",
          "transactionHash": "0x8ee6d69d39f4ce28e49dc9a467728e6da10e99f5aecb5a67d6b495196af125a4",
          "transactionIndex": "0x0",
          "logIndex": "0x1",
          "removed": false
        },
        {
          "address": "0x1000000000000000000000000000000000000002",
          "topics": [
            "0xe7aa66356adbd5e839ef210626f6d8f6f72109c17fadf4c4f9ca82b315ae79b4"
          ],
          "data": "0x000000000000000000000000d2a1bb23eb350814a30dd6f9de78bb2c8fdd9f1d0000000000000000000000000000000000000000000000000000000000004442",
          "blockHash": "0x235e57b993cb899cd8cb9955c10760c77da8fedc03a44415b99d7c230708696a",
          "blockNumber": "0x1ba3920",
          "transactionHash": "0x8ee6d69d39f4ce28e49dc9a467728e6da10e99f5aecb5a67d6b495196af125a4",
          "transactionIndex": "0x0",
          "logIndex": "0x2",
          "removed": false
        },
        {
          "address": "0x1000000000000000000000000000000000000002",
          "topics": [
            "0xe7aa66356adbd5e839ef210626f6d8f6f72109c17fadf4c4f9ca82b315ae79b4"
          ],
          "data": "0x0000000000000000000000006892bdbbb14e1c9bd46bf31e7bac94d038fc82a6000000000000000000000000000000000000000000000000000000000000422d",
          "blockHash": "0x235e57b993cb899cd8cb9955c10760c77da8fedc03a44415b99d7c230708696a",
          "blockNumber": "0x1ba3920",
          "transactionHash": "0x8ee6d69d39f4ce28e49dc9a467728e6da10e99f5aecb5a67d6b495196af125a4",
          "transactionIndex": "0x0",
          "logIndex": "0x3",
          "removed": false
        },
        {
          "address": "0x1000000000000000000000000000000000000002",
          "topics": [
            "0xe7aa66356adbd5e839ef210626f6d8f6f72109c17fadf4c4f9ca82b315ae79b4"
          ],
          "data": "0x000000000000000000000000bd33bdff04c357f7fc019e72d0504c24cf4aa0100000000000000000000000000000000000000000000000000000000000005488",
          "blockHash": "0x235e57b993cb899cd8cb9955c10760c77da8fedc03a44415b99d7c230708696a",
          "blockNumber": "0x1ba3920",
          "transactionHash": "0x8ee6d69d39f4ce28e49dc9a467728e6da10e99f5aecb5a67d6b495196af125a4",
          "transactionIndex": "0x0",
          "logIndex": "0x4",
          "removed": false
        },
        {
          "address": "0x1000000000000000000000000000000000000002",
          "topics": [
            "0xe7aa66356adbd5e839ef210626f6d8f6f72109c17fadf4c4f9ca82b315ae79b4"
          ],
          "data": "0x000000000000000000000000a90db6d10f856799b10ef2a77ebcbf460ac71e520000000000000000000000000000000000000000000000000000000000004c48",
          "blockHash": "0x235e57b993cb899cd8cb9955c10760c77da8fedc03a44415b99d7c230708696a",
          "blockNumber": "0x1ba3920",
          "transactionHash": "0x8ee6d69d39f4ce28e49dc9a467728e6da10e99f5aecb5a67d6b495196af125a4",
          "transactionIndex": "0x0",
          "logIndex": "0x5",
          "removed": false
        },
        {
          "address": "0x1000000000000000000000000000000000000002",
          "topics": [
            "0xe7aa66356adbd5e839ef210626f6d8f6f72109c17fadf4c4f9ca82b315ae79b4"
          ],
          "data": "0x0000000000000000000000000b162ca3acf3482d3357972e12d794434085d8390000000000000000000000000000000000000000000000000000000000012d53",
          "blockHash": "0x235e57b993cb899cd8cb9955c10760c77da8fedc03a44415b99d7c230708696a",
          "blockNumber": "0x1ba3920",
          "transactionHash": "0x8ee6d69d39f4ce28e49dc9a467728e6da10e99f5aecb5a67d6b495196af125a4",
          "transactionIndex": "0x0",
          "logIndex": "0x6",
          "removed": false
        }
      ],
      "logsBloom": "0x01020000000000000000000000000008000000000000000000000000000000000000000000000000000000000000000000000000000000000000000000000000000000000000000000400000000000000000000000000000000080000000000000000000000000000000000000000000000000000000000001000000000000000000000000000000000000000000000000000000000400000000000400000008080000000000000000000400000000000000000000000000000000000000000000000000000000000000400000000000000000000400000000000000000000000400000020000000000000000000000000000000000000000000000000000000",
      "type": "0x2",
      "transactionHash": "0x8ee6d69d39f4ce28e49dc9a467728e6da10e99f5aecb5a67d6b495196af125a4",
      "transactionIndex": "0x0",
      "blockHash": "0x235e57b993cb899cd8cb9955c10760c77da8fedc03a44415b99d7c230708696a",
      "blockNumber": "0x1ba3920",
      "gasUsed": "0xcbbf6",
      "effectiveGasPrice": "0x5",
      "from": "0x8062909712f90a8f78e42c75401086de3ee95fbe",
      "to": "0x434936d47503353f06750db1a444dbdc5f0ad37c",
      "contractAddress": null
    }
  ],
  "libraries": [],
  "pending": [],
  "returns": {},
  "timestamp": 1775305628870,
  "chain": 114,
  "commit": "81558ab"
}