{
  "transactions": [
    {
      "hash": "0x55e30bb8bae5c1da6d45f538fe2b377ee006b4e686ee9d2b8ecc59d3bf650a1e",
      "transactionType": "CALL",
      "contractName": null,
      "contractAddress": "0x7be27e427a0e1a605bf821cea5e062c3a8ad15a7",
      "function": "setQuotePublisher(address)",
      "arguments": [
        "0x8062909712F90a8f78e42c75401086De3eE95fBe"
      ],
      "transaction": {
        "from": "0x8062909712f90a8f78e42c75401086de3ee95fbe",
        "to": "0x7be27e427a0e1a605bf821cea5e062c3a8ad15a7",
        "gas": "0x10343",
        "value": "0x0",
        "input": "0x3b6a74d60000000000000000000000008062909712f90a8f78e42c75401086de3ee95fbe",
        "nonce": "0x1b",
        "chainId": "0x72"
      },
      "additionalContracts": [],
      "isFixedGasLimit": false
    }
  ],
  "receipts": [
    {
      "status": "0x1",
      "cumulativeGasUsed": "0xbbb4",
      "logs": [
        {
          "address": "0x7be27e427a0e1a605bf821cea5e062c3a8ad15a7",
          "topics": [
            "0xc0f65969190f504206650e0d2e76e11080a2ce2cb5866da1b844bac8b274a49b",
            "0x0000000000000000000000000000000000000000000000000000000000000000",
            "0x0000000000000000000000008062909712f90a8f78e42c75401086de3ee95fbe"
          ],
          "data": "0x",
          "blockHash": "0xb3ebaa96f45a81da45d029b3360256e2fac93e4abd4b8f1eba29cc67ae4186e2",
          "blockNumber": "0x1ba599d",
          "transactionHash": "0x55e30bb8bae5c1da6d45f538fe2b377ee006b4e686ee9d2b8ecc59d3bf650a1e",
          "transactionIndex": "0x0",
          "logIndex": "0x0",
          "removed": false
        },
        {
          "address": "0x1000000000000000000000000000000000000002",
          "topics": [
            "0xe7aa66356adbd5e839ef210626f6d8f6f72109c17fadf4c4f9ca82b315ae79b4"
          ],
          "data": "0x000000000000000000000000c738fdcde9cd2fbd72618d36ed71008b8d001ba4000000000000000000000000000000000000000000000000000000000000421a",
          "blockHash": "0xb3ebaa96f45a81da45d029b3360256e2fac93e4abd4b8f1eba29cc67ae4186e2",
          "blockNumber": "0x1ba599d",
          "transactionHash": "0x55e30bb8bae5c1da6d45f538fe2b377ee006b4e686ee9d2b8ecc59d3bf650a1e",
          "transactionIndex": "0x0",
          "logIndex": "0x1",
          "removed": false
        },
        {
          "address": "0x1000000000000000000000000000000000000002",
          "topics": [
            "0xe7aa66356adbd5e839ef210626f6d8f6f72109c17fadf4c4f9ca82b315ae79b4"
          ],
          "data": "0x000000000000000000000000d2a1bb23eb350814a30dd6f9de78bb2c8fdd9f1d000000000000000000000000000000000000000000000000000000000000795e",
          "blockHash": "0xb3ebaa96f45a81da45d029b3360256e2fac93e4abd4b8f1eba29cc67ae4186e2",
          "blockNumber": "0x1ba599d",
          "transactionHash": "0x55e30bb8bae5c1da6d45f538fe2b377ee006b4e686ee9d2b8ecc59d3bf650a1e",
          "transactionIndex": "0x0",
          "logIndex": "0x2",
          "removed": false
        },
        {
          "address": "0x1000000000000000000000000000000000000002",
          "topics": [
            "0xe7aa66356adbd5e839ef210626f6d8f6f72109c17fadf4c4f9ca82b315ae79b4"
          ],
          "data": "0x0000000000000000000000006892bdbbb14e1c9bd46bf31e7bac94d038fc82a6000000000000000000000000000000000000000000000000000000000000422d",
          "blockHash": "0xb3ebaa96f45a81da45d029b3360256e2fac93e4abd4b8f1eba29cc67ae4186e2",
          "blockNumber": "0x1ba599d",
          "transactionHash": "0x55e30bb8bae5c1da6d45f538fe2b377ee006b4e686ee9d2b8ecc59d3bf650a1e",
          "transactionIndex": "0x0",
          "logIndex": "0x3",
          "removed": false
        },
        {
          "address": "0x1000000000000000000000000000000000000002",
          "topics": [
            "0xe7aa66356adbd5e839ef210626f6d8f6f72109c17fadf4c4f9ca82b315ae79b4"
          ],
          "data": "0x000000000000000000000000bd33bdff04c357f7fc019e72d0504c24cf4aa0100000000000000000000000000000000000000000000000000000000000005488",
          "blockHash": "0xb3ebaa96f45a81da45d029b3360256e2fac93e4abd4b8f1eba29cc67ae4186e2",
          "blockNumber": "0x1ba599d",
          "transactionHash": "0x55e30bb8bae5c1da6d45f538fe2b377ee006b4e686ee9d2b8ecc59d3bf650a1e",
          "transactionIndex": "0x0",
          "logIndex": "0x4",
          "removed": false
        },
        {
          "address": "0x1000000000000000000000000000000000000002",
          "topics": [
            "0xe7aa66356adbd5e839ef210626f6d8f6f72109c17fadf4c4f9ca82b315ae79b4"
          ],
          "data": "0x000000000000000000000000a90db6d10f856799b10ef2a77ebcbf460ac71e520000000000000000000000000000000000000000000000000000000000004c48",
          "blockHash": "0xb3ebaa96f45a81da45d029b3360256e2fac93e4abd4b8f1eba29cc67ae4186e2",
          "blockNumber": "0x1ba599d",
          "transactionHash": "0x55e30bb8bae5c1da6d45f538fe2b377ee006b4e686ee9d2b8ecc59d3bf650a1e",
          "transactionIndex": "0x0",
          "logIndex": "0x5",
          "removed": false
        },
        {
          "address": "0x1000000000000000000000000000000000000002",
          "topics": [
            "0xe7aa66356adbd5e839ef210626f6d8f6f72109c17fadf4c4f9ca82b315ae79b4"
          ],
          "data": "0x0000000000000000000000000b162ca3acf3482d3357972e12d794434085d83900000000000000000000000000000000000000000000000000000000000103ba",
          "blockHash": "0xb3ebaa96f45a81da45d029b3360256e2fac93e4abd4b8f1eba29cc67ae4186e2",
          "blockNumber": "0x1ba599d",
          "transactionHash": "0x55e30bb8bae5c1da6d45f538fe2b377ee006b4e686ee9d2b8ecc59d3bf650a1e",
          "transactionIndex": "0x0",
          "logIndex": "0x6",
          "removed": false
        }
      ],
      "logsBloom": "0x00020000000000000000010000000000080000000000000000000000000000000000000000000000000000000000000000000000000400000000000000000000000000000000000000400000000000000000000000000000000080002000000000000000020004000000000000000800000000000000000003000000000000000000000000000000000000000000000000000000000000000020000400000000480000000000000000000000000000000000000000000000000000000000040000000000000000000000000000000000000000000000000000000000000020000000000000000000000000000000000000000000000000000000000000000000",
      "type": "0x2",
      "transactionHash": "0x55e30bb8bae5c1da6d45f538fe2b377ee006b4e686ee9d2b8ecc59d3bf650a1e",
      "transactionIndex": "0x0",
      "blockHash": "0xb3ebaa96f45a81da45d029b3360256e2fac93e4abd4b8f1eba29cc67ae4186e2",
      "blockNumber": "0x1ba599d",
      "gasUsed": "0xbbb4",
      "effectiveGasPrice": "0x2",
      "from": "0x8062909712f90a8f78e42c75401086de3ee95fbe",
      "to": "0x7be27e427a0e1a605bf821cea5e062c3a8ad15a7",
      "contractAddress": null
    }
  ],
  "libraries": [],
  "pending": [],
  "returns": {
    "relay": {
      "internal_type": "contract Relay",
      "value": "0x0000000000000000000000000000000000000000"
    }
  },
  "timestamp": 1775324471658,
  "chain": 114,
  "commit": "d739126"
}