{
  "transactions": [
    {
      "hash": "0xa6952c6f7848550a43c2d939258948e26a41244b0e6a4c3c026ae58737ebc5b4",
      "transactionType": "CALL",
      "contractName": null,
      "contractAddress": "0x675b77bbd1d54b9358b44ca9bf58244a37ed5e59",
      "function": "setSubmitter(address)",
      "arguments": [
        "0x0D729a3143fa3E78E3A3ebb2Df3207CCFB1857da"
      ],
      "transaction": {
        "from": "0x8062909712f90a8f78e42c75401086de3ee95fbe",
        "to": "0x675b77bbd1d54b9358b44ca9bf58244a37ed5e59",
        "gas": "0xa686",
        "value": "0x0",
        "input": "0x5a91f7430000000000000000000000000d729a3143fa3e78e3a3ebb2df3207ccfb1857da",
        "nonce": "0x3a",
        "chainId": "0x72"
      },
      "additionalContracts": [],
      "isFixedGasLimit": false
    }
  ],
  "receipts": [
    {
      "status": "0x1",
      "cumulativeGasUsed": "0x7890",
      "logs": [
        {
          "address": "0x675b77bbd1d54b9358b44ca9bf58244a37ed5e59",
          "topics": [
            "0x34c494333cce5b980d1647cd8a64d868d96cd8915c6c4ce84ab62050554fe667",
            "0x00000000000000000000000079d4a60f6da5f5d2ffa8b7833f592e6b4df3ac4b",
            "0x0000000000000000000000000d729a3143fa3e78e3a3ebb2df3207ccfb1857da"
          ],
          "data": "0x",
          "blockHash": "0x3877935b0718f03a9648a262843d7f216d726a56286f010fe099ae84562e821b",
          "blockNumber": "0x1ba815b",
          "transactionHash": "0xa6952c6f7848550a43c2d939258948e26a41244b0e6a4c3c026ae58737ebc5b4",
          "transactionIndex": "0x0",
          "logIndex": "0x0",
          "removed": false
        },
        {
          "address": "0x1000000000000000000000000000000000000002",
          "topics": [
            "0xe7aa66356adbd5e839ef210626f6d8f6f72109c17fadf4c4f9ca82b315ae79b4"
          ],
          "data": "0x000000000000000000000000c738fdcde9cd2fbd72618d36ed71008b8d001ba4000000000000000000000000000000000000000000000000000000000000421a",
          "blockHash": "0x3877935b0718f03a9648a262843d7f216d726a56286f010fe099ae84562e821b",
          "blockNumber": "0x1ba815b",
          "transactionHash": "0xa6952c6f7848550a43c2d939258948e26a41244b0e6a4c3c026ae58737ebc5b4",
          "transactionIndex": "0x0",
          "logIndex": "0x1",
          "removed": false
        },
        {
          "address": "0x1000000000000000000000000000000000000002",
          "topics": [
            "0xe7aa66356adbd5e839ef210626f6d8f6f72109c17fadf4c4f9ca82b315ae79b4"
          ],
          "data": "0x000000000000000000000000d2a1bb23eb350814a30dd6f9de78bb2c8fdd9f1d00000000000000000000000000000000000000000000000000000000000093ec",
          "blockHash": "0x3877935b0718f03a9648a262843d7f216d726a56286f010fe099ae84562e821b",
          "blockNumber": "0x1ba815b",
          "transactionHash": "0xa6952c6f7848550a43c2d939258948e26a41244b0e6a4c3c026ae58737ebc5b4",
          "transactionIndex": "0x0",
          "logIndex": "0x2",
          "removed": false
        },
        {
          "address": "0x1000000000000000000000000000000000000002",
          "topics": [
            "0xe7aa66356adbd5e839ef210626f6d8f6f72109c17fadf4c4f9ca82b315ae79b4"
          ],
          "data": "0x0000000000000000000000006892bdbbb14e1c9bd46bf31e7bac94d038fc82a6000000000000000000000000000000000000000000000000000000000000422d",
          "blockHash": "0x3877935b0718f03a9648a262843d7f216d726a56286f010fe099ae84562e821b",
          "blockNumber": "0x1ba815b",
          "transactionHash": "0xa6952c6f7848550a43c2d939258948e26a41244b0e6a4c3c026ae58737ebc5b4",
          "transactionIndex": "0x0",
          "logIndex": "0x3",
          "removed": false
        },
        {
          "address": "0x1000000000000000000000000000000000000002",
          "topics": [
            "0xe7aa66356adbd5e839ef210626f6d8f6f72109c17fadf4c4f9ca82b315ae79b4"
          ],
          "data": "0x000000000000000000000000bd33bdff04c357f7fc019e72d0504c24cf4aa0100000000000000000000000000000000000000000000000000000000000005488",
          "blockHash": "0x3877935b0718f03a9648a262843d7f216d726a56286f010fe099ae84562e821b",
          "blockNumber": "0x1ba815b",
          "transactionHash": "0xa6952c6f7848550a43c2d939258948e26a41244b0e6a4c3c026ae58737ebc5b4",
          "transactionIndex": "0x0",
          "logIndex": "0x4",
          "removed": false
        },
        {
          "address": "0x1000000000000000000000000000000000000002",
          "topics": [
            "0xe7aa66356adbd5e839ef210626f6d8f6f72109c17fadf4c4f9ca82b315ae79b4"
          ],
          "data": "0x000000000000000000000000a90db6d10f856799b10ef2a77ebcbf460ac71e520000000000000000000000000000000000000000000000000000000000004c48",
          "blockHash": "0x3877935b0718f03a9648a262843d7f216d726a56286f010fe099ae84562e821b",
          "blockNumber": "0x1ba815b",
          "transactionHash": "0xa6952c6f7848550a43c2d939258948e26a41244b0e6a4c3c026ae58737ebc5b4",
          "transactionIndex": "0x0",
          "logIndex": "0x5",
          "removed": false
        },
        {
          "address": "0x1000000000000000000000000000000000000002",
          "topics": [
            "0xe7aa66356adbd5e839ef210626f6d8f6f72109c17fadf4c4f9ca82b315ae79b4"
          ],
          "data": "0x0000000000000000000000000b162ca3acf3482d3357972e12d794434085d8390000000000000000000000000000000000000000000000000000000000025314",
          "blockHash": "0x3877935b0718f03a9648a262843d7f216d726a56286f010fe099ae84562e821b",
          "blockNumber": "0x1ba815b",
          "transactionHash": "0xa6952c6f7848550a43c2d939258948e26a41244b0e6a4c3c026ae58737ebc5b4",
          "transactionIndex": "0x0",
          "logIndex": "0x6",
          "removed": false
        }
      ],
      "logsBloom": "0x00020000000000000000000000000000000000080000000000000000000000000000000000000000000000000000000000004000000000000000000000000000000000000000000000400000000000000000000000000000000080000000000000000000000000000000000001000000000000000000000001000000000000000000000000000000200000000000000000000000004000000000000400000020080000000000000000000000000000000100000000000000000000000000000000000002000000000000000000004000000000000000000000000000000000000000000200000000000000000000000000000000000000020000001000000000",
      "type": "0x2",
      "transactionHash": "0xa6952c6f7848550a43c2d939258948e26a41244b0e6a4c3c026ae58737ebc5b4",
      "transactionIndex": "0x0",
      "blockHash": "0x3877935b0718f03a9648a262843d7f216d726a56286f010fe099ae84562e821b",
      "blockNumber": "0x1ba815b",
      "gasUsed": "0x7890",
      "effectiveGasPrice": "0x5",
      "from": "0x8062909712f90a8f78e42c75401086de3ee95fbe",
      "to": "0x675b77bbd1d54b9358b44ca9bf58244a37ed5e59",
      "contractAddress": null
    }
  ],
  "libraries": [],
  "pending": [],
  "returns": {
    "relay": {
      "internal_type": "contract Relay",
      "value": "0x0000000000000000000000000000000000000000"
    }
  },
  "timestamp": 1775347073567,
  "chain": 114,
  "commit": "5b457fc"
}