{
  "transactions": [
    {
      "hash": "0x083cafe5e98dbb0413e103412dc9b84b7e08cc10ecdf63a4a71248688f47f1db",
      "transactionType": "CALL",
      "contractName": null,
      "contractAddress": "0x027f7874bc35a691984f2545c05ac0e3c8616e2f",
      "function": "setRegistry(address,bytes32)",
      "arguments": [
        "0x3d478d43426081BD5854be9C7c5c183bfe76C981",
        "0x3078000000000000000000000000000000000000000000000000000000000000"
      ],
      "transaction": {
        "from": "0x8062909712f90a8f78e42c75401086de3ee95fbe",
        "to": "0x027f7874bc35a691984f2545c05ac0e3c8616e2f",
        "gas": "0xab04",
        "value": "0x0",
        "input": "0x9554fdbc0000000000000000000000003d478d43426081bd5854be9c7c5c183bfe76c9813078000000000000000000000000000000000000000000000000000000000000",
        "nonce": "0x6",
        "chainId": "0x72"
      },
      "additionalContracts": [],
      "isFixedGasLimit": false
    }
  ],
  "receipts": [
    {
      "status": "0x1",
      "cumulativeGasUsed": "0x7bd0",
      "logs": [
        {
          "address": "0x1000000000000000000000000000000000000002",
          "topics": [
            "0xe7aa66356adbd5e839ef210626f6d8f6f72109c17fadf4c4f9ca82b315ae79b4"
          ],
          "data": "0x000000000000000000000000c738fdcde9cd2fbd72618d36ed71008b8d001ba4000000000000000000000000000000000000000000000000000000000000421a",
          "blockHash": "0x8043deb028b83bc40508262609522db4e85da771b926c9fe0ffa2cc97d8d561e",
          "blockNumber": "0x1b9e8b0",
          "transactionHash": "0x083cafe5e98dbb0413e103412dc9b84b7e08cc10ecdf63a4a71248688f47f1db",
          "transactionIndex": "0x0",
          "logIndex": "0x0",
          "removed": false
        },
        {
          "address": "0x1000000000000000000000000000000000000002",
          "topics": [
            "0xe7aa66356adbd5e839ef210626f6d8f6f72109c17fadf4c4f9ca82b315ae79b4"
          ],
          "data": "0x000000000000000000000000d2a1bb23eb350814a30dd6f9de78bb2c8fdd9f1d000000000000000000000000000000000000000000000000000000000000328e",
          "blockHash": "0x8043deb028b83bc40508262609522db4e85da771b926c9fe0ffa2cc97d8d561e",
          "blockNumber": "0x1b9e8b0",
          "transactionHash": "0x083cafe5e98dbb0413e103412dc9b84b7e08cc10ecdf63a4a71248688f47f1db",
          "transactionIndex": "0x0",
          "logIndex": "0x1",
          "removed": false
        },
        {
          "address": "0x1000000000000000000000000000000000000002",
          "topics": [
            "0xe7aa66356adbd5e839ef210626f6d8f6f72109c17fadf4c4f9ca82b315ae79b4"
          ],
          "data": "0x0000000000000000000000006892bdbbb14e1c9bd46bf31e7bac94d038fc82a6000000000000000000000000000000000000000000000000000000000000422d",
          "blockHash": "0x8043deb028b83bc40508262609522db4e85da771b926c9fe0ffa2cc97d8d561e",
          "blockNumber": "0x1b9e8b0",
          "transactionHash": "0x083cafe5e98dbb0413e103412dc9b84b7e08cc10ecdf63a4a71248688f47f1db",
          "transactionIndex": "0x0",
          "logIndex": "0x2",
          "removed": false
        },
        {
          "address": "0x1000000000000000000000000000000000000002",
          "topics": [
            "0xe7aa66356adbd5e839ef210626f6d8f6f72109c17fadf4c4f9ca82b315ae79b4"
          ],
          "data": "0x000000000000000000000000bd33bdff04c357f7fc019e72d0504c24cf4aa0100000000000000000000000000000000000000000000000000000000000005488",
          "blockHash": "0x8043deb028b83bc40508262609522db4e85da771b926c9fe0ffa2cc97d8d561e",
          "blockNumber": "0x1b9e8b0",
          "transactionHash": "0x083cafe5e98dbb0413e103412dc9b84b7e08cc10ecdf63a4a71248688f47f1db",
          "transactionIndex": "0x0",
          "logIndex": "0x3",
          "removed": false
        },
        {
          "address": "0x1000000000000000000000000000000000000002",
          "topics": [
            "0xe7aa66356adbd5e839ef210626f6d8f6f72109c17fadf4c4f9ca82b315ae79b4"
          ],
          "data": "0x000000000000000000000000a90db6d10f856799b10ef2a77ebcbf460ac71e520000000000000000000000000000000000000000000000000000000000006f6e",
          "blockHash": "0x8043deb028b83bc40508262609522db4e85da771b926c9fe0ffa2cc97d8d561e",
          "blockNumber": "0x1b9e8b0",
          "transactionHash": "0x083cafe5e98dbb0413e103412dc9b84b7e08cc10ecdf63a4a71248688f47f1db",
          "transactionIndex": "0x0",
          "logIndex": "0x4",
          "removed": false
        },
        {
          "address": "0x1000000000000000000000000000000000000002",
          "topics": [
            "0xe7aa66356adbd5e839ef210626f6d8f6f72109c17fadf4c4f9ca82b315ae79b4"
          ],
          "data": "0x0000000000000000000000000b162ca3acf3482d3357972e12d794434085d8390000000000000000000000000000000000000000000000000000000000012263",
          "blockHash": "0x8043deb028b83bc40508262609522db4e85da771b926c9fe0ffa2cc97d8d561e",
          "blockNumber": "0x1b9e8b0",
          "transactionHash": "0x083cafe5e98dbb0413e103412dc9b84b7e08cc10ecdf63a4a71248688f47f1db",
          "transactionIndex": "0x0",
          "logIndex": "0x5",
          "removed": false
        }
      ],
      "logsBloom": "0x00020000000000000000000000000000000000000000000000000000000000000000000000000000000000000000000000000000000000000000000000000000000000000000000000400000000000000000000000000000000080000000000000000000000000000000000000000000000000000000000001000000000000000000000000000000000000000000000000000000000000000000000400000000080000000000000000000000000000000000000000000000000000000000000000000000000000000000000000000000000000000000000000000000000000000000000000000000000000000000000000000000000000000000000000000000",
      "type": "0x2",
      "transactionHash": "0x083cafe5e98dbb0413e103412dc9b84b7e08cc10ecdf63a4a71248688f47f1db",
      "transactionIndex": "0x0",
      "blockHash": "0x8043deb028b83bc40508262609522db4e85da771b926c9fe0ffa2cc97d8d561e",
      "blockNumber": "0x1b9e8b0",
      "gasUsed": "0x7bd0",
      "effectiveGasPrice": "0xba43b7403",
      "from": "0x8062909712f90a8f78e42c75401086de3ee95fbe",
      "to": "0x027f7874bc35a691984f2545c05ac0e3c8616e2f",
      "contractAddress": null
    }
  ],
  "libraries": [],
  "pending": [],
  "returns": {},
  "timestamp": 1775257278872,
  "chain": 114,
  "commit": "71266a3"
}