{
  "transactions": [
    {
      "hash": "0xb1663837799c3be57f9c942da0ee240d3220bc4a27c56af43eec9abcae8b0986",
      "transactionType": "CALL",
      "contractName": null,
      "contractAddress": "0x027f7874bc35a691984f2545c05ac0e3c8616e2f",
      "function": "setRegistry(address,bytes32)",
      "arguments": [
        "0xaD67FE66660Fb8dFE9d6b1b4240d8650e30F6019",
        "0x3078000000000000000000000000000000000000000000000000000000000000"
      ],
      "transaction": {
        "from": "0x8062909712f90a8f78e42c75401086de3ee95fbe",
        "to": "0x027f7874bc35a691984f2545c05ac0e3c8616e2f",
        "gas": "0x172a5",
        "value": "0x0",
        "input": "0x9554fdbc000000000000000000000000ad67fe66660fb8dfe9d6b1b4240d8650e30f60193078000000000000000000000000000000000000000000000000000000000000",
        "nonce": "0x4",
        "chainId": "0x72"
      },
      "additionalContracts": [],
      "isFixedGasLimit": false
    },
    {
      "hash": "0x7237093d2377dc58b46a023deb6e07cd010576a3fe9d667440368f37932e2315",
      "transactionType": "CALL",
      "contractName": null,
      "contractAddress": "0x027f7874bc35a691984f2545c05ac0e3c8616e2f",
      "function": "setVerifyingContract(address)",
      "arguments": [
        "0xEe5b0Ba2793267da967E800Ac926620742620D13"
      ],
      "transaction": {
        "from": "0x8062909712f90a8f78e42c75401086de3ee95fbe",
        "to": "0x027f7874bc35a691984f2545c05ac0e3c8616e2f",
        "gas": "0xf9d5",
        "value": "0x0",
        "input": "0x88401098000000000000000000000000ee5b0ba2793267da967e800ac926620742620d13",
        "nonce": "0x5",
        "chainId": "0x72"
      },
      "additionalContracts": [],
      "isFixedGasLimit": false
    }
  ],
  "receipts": [
    {
      "status": "0x1",
      "cumulativeGasUsed": "0x44925",
      "logs": [],
      "logsBloom": "0x00000000000000000000000000000000000000000000000000000000000000000000000000000000000000000000000000000000000000000000000000000000000000000000000000000000000000000000000000000000000000000000000000000000000000000000000000000000000000000000000000000000000000000000000000000000000000000000000000000000000000000000000000000000000000000000000000000000000000000000000000000000000000000000000000000000000000000000000000000000000000000000000000000000000000000000000000000000000000000000000000000000000000000000000000000000",
      "type": "0x2",
      "transactionHash": "0xb1663837799c3be57f9c942da0ee240d3220bc4a27c56af43eec9abcae8b0986",
      "transactionIndex": "0x1",
      "blockHash": "0x84ab6b48363830ebe5a9644a4180cc72a0d8e3a08a9ef99d2a03248de8b9e0e1",
      "blockNumber": "0x1b9e33c",
      "gasUsed": "0x10c58",
      "effectiveGasPrice": "0x5",
      "from": "0x8062909712f90a8f78e42c75401086de3ee95fbe",
      "to": "0x027f7874bc35a691984f2545c05ac0e3c8616e2f",
      "contractAddress": null
    },
    {
      "status": "0x1",
      "cumulativeGasUsed": "0x4fe05",
      "logs": [],
      "logsBloom": "0x00000000000000000000000000000000000000000000000000000000000000000000000000000000000000000000000000000000000000000000000000000000000000000000000000000000000000000000000000000000000000000000000000000000000000000000000000000000000000000000000000000000000000000000000000000000000000000000000000000000000000000000000000000000000000000000000000000000000000000000000000000000000000000000000000000000000000000000000000000000000000000000000000000000000000000000000000000000000000000000000000000000000000000000000000000000",
      "type": "0x2",
      "transactionHash": "0x7237093d2377dc58b46a023deb6e07cd010576a3fe9d667440368f37932e2315",
      "transactionIndex": "0x2",
      "blockHash": "0x84ab6b48363830ebe5a9644a4180cc72a0d8e3a08a9ef99d2a03248de8b9e0e1",
      "blockNumber": "0x1b9e33c",
      "gasUsed": "0xb4e0",
      "effectiveGasPrice": "0x5",
      "from": "0x8062909712f90a8f78e42c75401086de3ee95fbe",
      "to": "0x027f7874bc35a691984f2545c05ac0e3c8616e2f",
      "contractAddress": null
    }
  ],
  "libraries": [],
  "pending": [],
  "returns": {},
  "timestamp": 1775254102939,
  "chain": 114,
  "commit": "36bb540"
}